:020000040800F2
:10000000B8A30020A1010008F77E000835660008AB
:10001000F57E000843300008D58800080000000085
:1000200000000000000000000000000059810008EE
:100030006932000800000000797F00085D81000837
:10004000BB010008BB010008BB010008BB010008A0
:10005000BB010008BB010008BB010008BB01000890
:10006000BB010008BB010008BB010008FD3000080F
:10007000BB010008BB01000809310008BB010008F2
:10008000BB010008BB010008BB010008BB01000860
:10009000BB010008BB010008BB0100086B3200086F
:1000A000BB010008BB010008BB010008BB01000840
:1000B000BB010008BB010008BB0100084566000841
:1000C00039660008BB010008BB010008BB0100083D
:1000D000BB010008BB010008BB010008C98800087B
:1000E000BB010008BB010008BB010008BB01000800
:1000F000BB010008BB010008BB010008BB010008F0
:10010000BB010008BB010008BB010008BB010008DF
:10011000BB010008BB010008BB010008BB010008CF
:100120001531000821310008BB010008BB0100089F
:10013000BB010008BB010008BB010008BB010008AF
:10014000BB010008BB010008BB010008BB0100089F
:10015000BB010008BB010008BB010008BB0100088F
:10016000BB010008BB010008BB010008BB0100087F
:10017000BB010008BB010008F130000800000000CE
:10018000BB010008BB010008DFF810D002F02AFF15
:1001900000480047FDCC0008AFF30080B8A3002062
:1001A0000648804706480047FEE7FEE7FEE7FEE711
:1001B000FEE7FEE7FEE7FEE7FEE7FEE72582000832
:1001C0008901000810B5F949C4074FF040434FF0CA
:1001D000804205D08B66CB66C1E91C328A67CA674C
:1001E000840709D5C1F80031C1F80431C1E94232B0
:1001F000C1F81021C1F81421400709D5C1F8983180
:10020000C1F89C31C1E96832C1F8A821C1F8AC211C
:1002100010BD2DE9F14F82B0002102988A4689462F
:10022000806F00287DD000220020401C0428FCDBC9
:1002300002984FF0000C00EBC203D3E90010A1FBC1
:100240000167D3E9065400FB017701FB0077CDE994
:100250000067A646AE1B64EB0704AB460327A6FB6C
:10026000075804FB078406FB0C44DDE90067AD1961
:100270007C41A5FB016704FB017405FB0045D3E944
:100280000C47341B65EB0705CDE900455D46A5FB32
:1002900005670324A6FB04580EFB0B770BFB0E77B8
:1002A00007FB048406FB0C44D3E91263761B63EB63
:1002B00004034C18A4FB017C40EB000505FB01C5C1
:1002C00004FB0055A7FB014C05FB01C507FB0055CE
:1002D000A4FB017C05FB01C504FB0054F619634136
:1002E000DDE90045AD0045EA9475A400A4FB017C5E
:1002F00005FB01C104FB0014F01B73EB040103D5E3
:100300000023404263EB0101BAEB000479EB0103E7
:1003100001DA82468946521C032A85DB504649464B
:1003200000E010E002F05FFCA149896B02F064FA82
:1003300002F099FC9D4AD2F80C2203B09200BDE86D
:10034000F04F02F07EB9002003B00146BDE8F08F07
:100350002DE9F14F0020009A0146926FF2B300247C
:100360000022521C042AFCDB009A02EBC405AA46B8
:10037000D5E90029A2FB023CD5E906769E46FB1A88
:100380000325A3FB057809FB02CC02FB09CB66EB36
:100390000B0606FB05854FF0000C03FB0C5617EB14
:1003A0000E03A3FB027C46EB0B0606FB02C203FB1B
:1003B0000923DAE90C25BA1AAB4103D500255242CC
:1003C00065EB0303851A71EB030501DA1046194644
:1003D000641C032CC4DB02F006FC00E00EE0744950
:1003E000896B02F009FA02F03EFC704AD2F80C2246
:1003F000BDE8F84F02EB420202F023B900200146AB
:10040000BDE8F88F2DE9FE43684D80460024D5F8FD
:1004100010626F4605EBC4013246D1E9020102F0D9
:1004200001F905EB8401B1F884100904401847F87C
:10043000240004F10104032CECDB5C489821083013
:1004400002F038F90120FFF7BDFE95F8E8010199A7
:10045000042807D1D5F81802B0F5201F02DD0520C9
:1004600085F8E801524C0098636AC11A01D40E461F
:1004700000E01E1A0198A26A801A01D4074601E022
:10048000019FD71BBE4206DD002901D4084606E0C5
:100490000098181A03E0002801D50198101A029A52
:1004A000E16A521A01D4134601E0029BCB1A83423F
:1004B00005DB002A01D4104601E00298081AD8F89A
:1004C00024100BF045FFD5F81812814206DD0321F8
:1004D00068460CF0FDFA02200CF050FB00986062B8
:1004E0000198A0620298E062BDE8FE83304AC2E94A
:1004F000020170472E4AC2E9060170472C4AC2E940
:1005000004017047294AD2F8E0310360D2E974024D
:10051000C1E900027047254AD2F8E0310360D2E910
:100520007602C1E9000270472DE9FE4781460020AE
:10053000EA468A6F22B901EB800339F91020DA67A5
:1005400001EB800239F91030D46F1D1B4AF820509E
:10055000136E9D4200DD1566D36E9D4200DAD566AE
:100560000123002422464FEAE578A3FB056704FB3C
:10057000057403FB0844334602EB420601EBC60652
:1005800006EBC00CDCE90076FF186641CCE900768A
:10059000521C042AE9DB401C0328CADB886F401C7C
:1005A00088670120C1F89000BDE8FE87F898002018
:1005B000589B002030B5002302EB830550F8234000
:1005C0005B1CEC66032BF7DBC2F88810916F79B1E6
:1005D000002102EB810450F82130E56F5B1B00D550
:1005E0005B42256E9D4200DA2366491C0329F0DB3D
:1005F000906F401C90670120C2F8900030BD10B58C
:1006000000210B4600EB8102491CD46ED4671366AF
:100610000329F7DBD0F8881040F8783FC0E90513CC
:1006200010BDD0E92210081A70470146D1E918021E
:10063000824200DB1046896E814200DB084670472B
:100640002DE9F0478046501E012686408946C2F1BA
:100650002007404601F0F5FF04460D464046494656
:100660003A4601F0DFFF3A4601F0EBFFB04203DD0E
:10067000641C45F1000505E07142884202DA641EFF
:1006800045F1FF3520462946BDE8F087F7490020AF
:10069000086248628862C862086448648864C86402
:1006A000086348638863C863086548658865C865EA
:1006B000704730B5EE4AD2F8483223B1D2E99054AF
:1006C0002D1A8C4101DAC2E990015B1CC2F8483254
:1006D00030BD30B5E64AD2F8583223B1D2E994544D
:1006E0002D1A8C4101DAC2E994015B1CC2F8583220
:1006F00030BD30B5DE4AD2F828322BB1D2E9884578
:10070000041B71EB050401DAC2E988015B1CC2F825
:10071000283230BD30B5D64AD2F838322BB1D2E9C2
:100720008C45041B71EB050401DAC2E98C015B1CEA
:10073000C2F8383230BD2DE9F0470246CC480125D9
:1007400008308046C36E016E046FC91A436E1B1BCE
:100750008B4200DB1946836ED8F87400181A884261
:1007600000DB0146C14F6037F86B884204DA002491
:1007700000F00AFA204687E7108E0124BC4EC0051F
:100780004FF000010ED5D6F880303068834209DB87
:10079000B2F87420D20506D5D6F8B021824201DB2A
:1007A000052400E00C4674B3600719D5AF48C8387B
:1007B0008146FFF72EFD000D40EA01300915C6E91C
:1007C0007601D7E904321B1A8A4102DA0025FFF7C5
:1007D000A1FF9821484601F06DFF0420FFF7F2FCCD
:1007E000E0070ED04046FFF714FDC6E97C01D7E9CB
:1007F00006340246181A8C4103DA00251046FFF72A
:1008000078FF284640E7FFE702203DE71EB5044693
:1008100090F83000C0F38110032804D19449201DC2
:100820000831FFF781FE94F87400C0F381100328AB
:1008300005D18E4904F14800C839FFF775FED4F898
:10084000B8008B4AC0F38113A0326946032B0FD046
:10085000C0F3411003281AD1002004EB8003D3F821
:10086000A0309B1341F82030401C0328F5DB09E041
:10087000002004EB4003B3F98C3041F82030401CD9
:100880000328F6DB6846D4F8C010FFF793FE1EBDC0
:100890002DE9F04705460020296BCA0567D501F010
:1008A0005001402900D1012095F8741001F0500149
:1008B000402900D1012095F8B8106D4C01F050018D
:1008C000402900D030B100F05FF90020C4F8E00109
:1008D00084F8E801654ED4F80812E86A603681426F
:1008E00025D0C4F808020A28306B0ADA40002060DC
:1008F000716B491CC4F80C1202F067F90DF0A8FBEB
:1009000004E02060706BC4F80C02B06BC4F81402F1
:10091000D4F80C02C0F11000C4F810024FF480406B
:10092000C4F8180296F8341019208840F06328465D
:10093000FFF76CFF94F8E811DFF8349105274FF0CA
:10094000020809F1A009072911D2DFE801F004111A
:1009500027305E7E8500D4F8E001411CC4F8E01128
:100960000A2804DB00F010F9012084F8E80186E091
:10097000D4F89800012810D12846FFF7DCFE10B10A
:10098000012803D004E084F8E87101E084F8E881EC
:100990004846FFF734FEFFF779FE70E0032084F845
:1009A000E8012846FFF72EFD00F0EEF867E0284644
:1009B000FFF7C1FEF0B3012861D1B5F8B8004FF0E0
:1009C0000403C00515D54846FFF72FFE0146C017A2
:1009D000C4E97410D6E902C2BCEB0101824102DA1B
:1009E00084F8E87108E04846FFF71BFE316A884248
:1009F00002D384F8E83124E0F4E97601FFF769FED8
:100A0000D4E90601FFF755FE39E0B5F8B800C00596
:100A10000BD54846FFF709FE0146C017C4E974101C
:100A2000D6E90232591A824108DB2846FFF783FED5
:100A300000B100E002E0012803D020E084F8E87172
:100A40001DE02846FFF7DEFCD6E7062084F8E80123
:100A500001200CF093F80DE02846FFF76CFE01280A
:100A600001D038B10BE084F8E88108E0F89A002062
:100A7000F898002000F088F84846FFF7C0FD0020F5
:100A800002E610B500214010002802D001F101015A
:100A9000F9DC454C4FF0010001F1010100FA01F0D1
:100AA000C4E90C0102F091F80DF0D2FAA06394F8B9
:100AB000341019208840E06310BD10B54FF4187150
:100AC0003A4801F0F7FD4021374801F0F3FD0720D7
:100AD000FFF778FB344840F2DC510022C0E90612EF
:100AE0001421C0E902124FF41671C0E90412304912
:100AF0002E4C01620120C4F8E4011920FFF7C1FF68
:100B00000020C4F8080210BD10B54FF41871274832
:100B100001F0D0FD0720FFF755FB244801210022FA
:100B2000C0F8E41180F8E811032101200CF01CF852
:100B300007226421AFF2A720BDE810400BF058BE99
:100B400010B501200CF01AF8AFF2BB20BDE8104040
:100B50000CF080B810B5FFF7B0FF002805D1AFF258
:100B60005700BDE810400BF0D1BE10BD10B5FFF727
:100B7000E7FFAFF26B00BDE810400CF099B80B49ED
:100B8000D1E97C0170477047084810B598210830BA
:100B900001F090FD9821074801F08CFDBDE8104060
:100BA0000520FFF70FBB0000589B0020F89800209D
:100BB0000008AF2F309A00202DE9FC5F0D4600267B
:100BC000416B99469246B046002904DBD0F8BC0040
:100BD000032800D10126FF492422081F01F043FD0C
:100BE000FC4FC03F0024C7F8E05007EB8400D0F86A
:100BF000BC10404601F076FD641C80460A2CF4DBF4
:100C0000F54901F0F9FDF54C80464FF0C80BC7F8E7
:100C1000E400BAF1320F21DB4846C7F81CB101F0FD
:100C2000D4FF00900190EE49284601F0E5FD0199BE
:100C300001F0B0FD214601F0DFFD0446BAF57A7FF0
:100C400033DBE8492846009C01F0D6FD214601F03F
:100C5000A1FDE24901F0D0FD044626E041F28831D1
:100C600099FBF1F04042D7F81C1100EB80004018CE
:100C7000C7F81C0102D50020C7F81C01484601F046
:100C8000A4FF8246D849284601F0B6FD514601F03E
:100C900081FD214601F0B0FD0446D7F81C0120B9C2
:100CA000D7F82801012800D10024D7F8200100B18D
:100CB0002C46CE49894500D12C4614F0FF4F11D067
:100CC0004046C7F8E880414601F05EFD20F0004054
:100CD000C74902F059F822D2D7F8B80010F0FF4FF8
:100CE00003D01CE0D7F8E800EDE7C6B14846C7F8E6
:100CF0001CB101F08EFF04460E46284601F0F3FFBA
:100D00000022BC4B01F0DBFE2246334601F065FEBB
:100D10000022B94B01F0D3FE02F010F80446204641
:100D2000BDE8FC9F2DE9F04FABB04FF0000AA94F92
:100D3000CDF810A0C03FCDF814A0CDF818A00446FF
:100D4000D7F82011022003297DD0002620AD07EB23
:100D50008600D0F8A80001F038FF6FF01D0101F007
:100D600089FD45F82600761C042EF0DB0FA80AF05A
:100D700075FF24A80AF0E0FF964B24AA183B0FA9A0
:100D80002046279300F0F4F9064604F118000BF012
:100D90004FF882099548D7F83031834200DB03468B
:100DA00031462046FFF708FFBB4607F1B806D7F8E3
:100DB000EC1001F0EFFC30600BA80AF04FFF13A914
:100DC0000BA80BF0A7FC83480FAA3C300BA90646E2
:100DD0000BF01AFB31460BA80BF0F3FA00210DF1D2
:100DE0003C080DF14C090DF1100E0022134610467F
:100DF00001EB410C0CEB000759F8276008EB80076A
:100E0000401C7F680328C6FB0723F3DB900F40EAF2
:100E100083004EF82100491C0329E6DBDBF82001A2
:100E20005F4600287DD05046CDF818A0404201F022
:100E3000CCFE6FF01D09494601F01CFD09F0FCFED7
:100E4000D046564600E074E0CDE9000A0698CDF899
:100E500008A0404201F0B9FE494601F00BFD0DF03B
:100E6000B8F80390D7F8300141F2883190FBF1F0E7
:100E70004FF0804A01F0A9FE28902990069801F0D1
:100E8000A4FEDFF878B1594601F0B6FC299901F0CB
:100E9000B3FC514601F0B0FC01F0CCFE40000690DE
:100EA000DDF8A0A001F091FE594601F073FC514617
:100EB00001F070FC01F0BEFE069001F086FE49468E
:100EC00001F0D8FC09F0B8FECDE9070609960698AE
:100ED00001F07BFE494601F0CDFC0DF07AF80A9056
:100EE0001CAA694620A80BF0E7FA6A4607A91CA8C5
:100EF0000BF0E2FAD4F8BC00EA46002810DD002628
:100F00001E215AF8260045F8260001F0B3FC01F036
:100F100091FE07EB8601761CC1F8A800042EEFDBDA
:100F200000E00BE0D4F8BC004FF0FF3503280AD1F5
:100F300006E0C7F820012BB0BDE8F08F069875E7F2
:100F400001F007FBF0B357F8A80F01F03EFE4E4644
:100F5000494601F08FFC1C90786801F036FE31465E
:100F600001F088FC1D90B86801F02FFE314601F0B9
:100F700081FC1E90F86801F028FE314601F07AFCF1
:100F80001F90B86FA83F0028D5D0D7F8B8002946E1
:100F9000A83701F06FFC09F04FFE1E2101F06AFC3A
:100FA00001F048FEC7E90008C7F8088029463869FB
:100FB00001F060FC0DF00DF81E2101F05BFC01F06A
:100FC00039FE00E01CE0F860D4F8C010A83F279874
:100FD00044E00000589C00200000204100409C4557
:100FE00000004843000048420000C84340420F0050
:100FF0000E2DB23D000079400088B340E102374732
:101000002946D7F8B80001F035FC09F015FECDE906
:101010000708CDF824802946D7F8B80001F02AFC4B
:101020000CF0D7FF0A906A4607A920A80BF044FAF3
:1010300068460BF0EDFA002556461E2156F82500AD
:1010400001F018FC01F0F6FD07EB85016D1CC1F8FD
:10105000A800042DF1DBD4F8C01027980BF0D6FCC3
:10106000D7F8200100288FD0401E62E770B590F8B5
:10107000B810664ACC064FF000034FF0030101D4CC
:10108000C2E94813B0F82041E40509D4048EE40510
:1010900003D5B0F87440E40502D4C2E948131AE05D
:1010A000D2F8341139B1D0E93013C91A4FF47A7338
:1010B000B1FBF3F105E0D0F8B01044F62064A14292
:1010C00002DBC2F830110AE0D2F82C512944C2F8F0
:1010D0002C11A14201DA002070BDC2E94B31FFF7AB
:1010E00021FEF8E710B54FF49C71484801F0E2FA90
:1010F000464C4FF080400021C4F8FC0044F8A80F93
:101100004248A8300BF082FC4FF47A7060674FF0D1
:101110007E50606410BD3D49C1F8EC00002070476E
:101120003A49C1F82801002070473849C1F8340114
:101130000020704704224FF41671AFF2CF000BF07D
:1011400057BBAFF2D7000BF085BD10B5FFF7CAFF54
:101150002E490020C1F82801C1F83401AFF22B005C
:10116000BDE810400BF0D2BBAFF237000BF0A0BDD2
:101170002DE9FF470C4625491546074699463C226E
:101180000C31224801F06FFA204950225831A1F168
:10119000100001F068FA1D4E95E8070006F13C03C7
:1011A0001B4D83E807001ECC06F1980080E81E0066
:1011B000D6F82401401CC6F82401062802DD0620CA
:1011C000C6F82401C0F1060407F1A00818E006EBF8
:1011D00004116A46484648310BF016F904EB440006
:1011E00006EB80016A4640460AF0E4FA074625F01D
:1011F000004120F0004001F0BDFD00D23D46641CDE
:10120000062CE4DB04B02846BDE8F087989B00205C
:10121000002474491FB501461022684601F023FAE4
:10122000F6489DE80E0080E80E00F5499DF80C0098
:1012300081F8B001002004B010BD1FB5EF490EC900
:101240008DE80E00EE49102291F8B0118DF80C10C7
:10125000694601F008FA0020EDE72DE9F04F91B062
:1012600000251821684601F025FA0024182106A857
:1012700001F020FAE249A046C14691F8C0010128D8
:101280007ED1D1F8B8B1D1F8B4A10022C2EBC2002E
:1012900000EB4001DA4800EB810E9EF850000F9001
:1012A000002863D000215EE05EF82130DDE90067B0
:1012B0006D1CD8170E939B197841CDE900300EEBC9
:1012C0008100EDB243690D93DDE9027CDE17DB1985
:1012D00046EB0C06CDE90236836ADDE9047CDE17B5
:1012E0000C93DB1946EB0C06CDE90436C06B0E9B64
:1012F000DDE9067C83FB0063360C46EA0346F619FB
:101300004CEB2343CDE906630D9BDDE9087C83FBB1
:1013100000634FEA164646EA0346F6194CEB2343B0
:10132000CDE908630C9BDDE90A7C83FB00634FEA8F
:10133000164646EA0346F6194CEB2343CDE90A6309
:1013400080FB00634FEA164646EA034616EB0808A0
:1013500049EB23490444584501DA834602E05045ED
:1013600000DD8246491C0F9888429DDC521C052AEC
:101370008CDBA348AAEB0B01D0F8BC01814200E052
:1013800053E052DBA5FB0872E01700260F9006FB26
:10139000082005FB09000E9084FB0410090C41EAAB
:1013A00000410014CDE90C0106A800EBC601D1E90B
:1013B0000002A0FB05BC02FB05C2002100FB012CC2
:1013C000684600EBC601D1E90002A0FB043802FB2D
:1013D00004820F9900FB0120190C0CAA41EA004974
:1013E0004FEA204A92E80B0087EA010283EA0008EC
:1013F00052EA080212D07A1A63EB0003BBEB090031
:101400006CEB0A0C4FEA0C4141EA1041000401F078
:10141000D8F87B4901EB8601C1F8A401761C032EA4
:10142000C2DB7748012180F8B01111B00020BDE87F
:10143000F08FF8B5724D0E460446D5E96D01091AD4
:10144000052291FBF2F1301A90FBF1F0C0B28DF859
:101450000000042801D92020F8BDC0EBC00000EB3B
:10146000400005EB800191F85000052816D0421C81
:1014700081F850209DF80010C1EBC10101EB410142
:1014800005EB810202EB8001CE63236842F8203035
:1014900060684861A06888620020F8BD01F14003DF
:1014A000181F1022194601F0DEF89DF800001022E6
:1014B000C0EBC00000EB400005EB8000011D01F017
:1014C000D2F89DF800001022C0EBC00000EB4000F5
:1014D00005EB800000F11801143001F0C4F89DF80C
:1014E00000001022C0EBC00000EB400005EB8000C4
:1014F00000F12C01283001F0B6F80420BAE730B52D
:1015000085B0044603A968460AF050FC04A80AF016
:10151000F9FC02282BD0D4F8E4000399401A38498A
:1015200091F8B02112B308B3D1F8A421009C80FB3C
:101530000232150445EA134222440092D1F8A82150
:10154000019C80FB0232150445EA134222440192B9
:10155000D1F8AC11029A80FB0110030443EA114058
:1015600010440290032168460BF0B2FA0CE0606B65
:10157000032809D10AF030FC30B168460399FFF71F
:1015800058FF08B9FFF769FE05B0002030BD10B55F
:101590004FF4E2711A4801F08DF819481949C0F862
:1015A000B4114FF4AA01C0F8B8114FF4A021C0F84B
:1015B000BC11012180F8C011002010BD1049C1F8F4
:1015C000B801002070470E49C1F8B40100207047EF
:1015D0000B49C1F8BC010020704758B10849D1F847
:1015E000A4210260D1F8A8214260D1F8AC11816039
:1015F000002070470520704724207047749E00200B
:10160000D09C00200000D8FF20B12D4981F8C001F6
:101610000020704724207047294B93F8B10100281F
:1016200018D0D3E96D10401A052190FBF1F000208D
:10163000C0EBC00101EB410103EB810191F85020A7
:1016400022B1002100E0491C8A42FCDC401C052834
:10165000EEDB00207047082296211A480BF0C8B82C
:1016600018480BF0F7BA10B5FFF791FF4FF49A73D3
:101670001022154915480BF013F920B9AFF22900D3
:101680000BF044F908B1012010BD0D49012081F88B
:10169000B101002010BD10B5094C94F8B10100282B
:1016A00008D008480BF0D6FAAFF255000BF000FB5B
:1016B00008B1012010BD002084F8B10110BD000068
:1016C000D09C0020FF1400083B12000815120008EF
:1016D0002DE9F043044699B01D4691460E468068B8
:1016E00001F073FA014601F055F88046606801F098
:1016F0006CFA014601F04EF80746206801F065FAE1
:10170000014601F047F8394600F0ECFF414600F091
:10171000E9FF0CF09DFC074620F000404FF08D41A2
:1017200001F032FB7ED2306801F04FFA6FF01D08F5
:10173000414601F09FF80490706801F046FA414676
:1017400001F098F80590B06801F03FFA414601F0C9
:1017500091F80690F06801F038FA414601F08AF8F5
:1017600000260C960790206801F02FFA394601F008
:1017700043F80D90606801F028FA394601F03CF812
:101780000E90A06801F021FA394601F035F80F906B
:1017900010AA0CA904A80AF08FFE14A904A80AF044
:1017A0001CFE6A4614A910A80AF086FE0199084694
:1017B00000F0F0FF02990446084600F0EBFF2146D6
:1017C00000F090FFFE49884201DAFE4C0BE0FE4932
:1017D000884201DAFD4C06E0FD49884202DA4FF00A
:1017E0007A5400E0FB4C484601F0EFF9FA4901F069
:1017F00003F8214600F0CEFF0446089621460298E1
:1018000000F0C8FF09900198214680F0004000F0E8
:10181000C1FFCDE90A066A4604A908A80AF04CFEF1
:101820006A4600E025E004A910460AF0A9FD6846D2
:101830000AF0ACFE1E21009801F01CF801F0FAF944
:1018400028601E21019801F015F801F0F3F9686095
:101850001E21029801F00EF801F0ECF9A8601E219B
:10186000039801F007F801F0E5F9E86019B0BDE868
:10187000F08396E80F0085E80F00F7E72DE9F05FA9
:1018800005460C46806801F0A0F9014600F082FF91
:101890000746686801F099F9014600F07BFF0646AB
:1018A000286801F092F9014600F074FF314600F01B
:1018B00019FF394600F016FF0CF0CAFB4FF07E59B5
:1018C000002706464FF08048484505DCC4E90087FC
:1018D000A760E760BDE8F09FA86801F076F931469F
:1018E00000F08AFF82460146484600F04DFF4FF463
:1018F0000006B04200DA00204FF0FF3100F0BAFFDE
:101900000CF0A6FB83464946504600F0EBFEB04281
:1019100000DA00204FF0FF3100F0ACFF0CF098FB34
:101920008246686801F051F9014600F033FF06462F
:10193000286801F04AF9014600F02CFF314600F01A
:10194000D1FE0CF085FB06464845BFDD1E21504602
:1019500000F090FF01F06EF92060686801F035F941
:10196000314600F049FF594600F014FF1E2100F0F7
:1019700081FF01F05FF96060286801F026F93146C7
:1019800000F03AFF594600F005FF944900F002FFCD
:1019900001F050F9C4E902079CE72DE9F041054642
:1019A0000C46C06801F011F9014600F0F3FE8046D4
:1019B000A86801F00AF9014600F0ECFE07466868E5
:1019C00001F003F9014600F0E5FE0646286801F043
:1019D000FCF8014600F0DEFE314600F083FE394699
:1019E00000F080FE414600F07DFEB0F5000F06DA03
:1019F0004FF08040206000206060A0602DE00CF07F
:101A000027FB01464FF07E5000F0F6FE1E2100F04D
:101A100031FF0646286801F0D8F8314600F0BAFEDA
:101A200001F008F92060686801F0CFF8314600F055
:101A3000B1FE01F0FFF86060A86801F0C6F8314619
:101A400000F0A8FE01F0F6F8A060E86801F0BDF82B
:101A5000314600F09FFE01F0EDF8E060BDE8F08156
:101A600070B5044690F8300088B0400676D5A0697D
:101A7000002801DB014600E041424FF4803200269D
:101A8000574D91420BDAE169002900DA494291424F
:101A900005DA216A002900DA4942914260DB002818
:101AA00000DA40424FF4C80188420BDCE0690028AC
:101AB00000DA4042884205DC206A002800DA404211
:101AC000884201DD032000E00220A863696BA06A60
:101AD000814219D06863A06A01F077F8414900F0AB
:101AE0008BFE1D2100F0C6FE01F0FDF83E4A3F4B83
:101AF00000F073FF082201F051F800223C4B00F087
:101B0000DEFF01F0D1F828630496296BA0690AF082
:101B10001FFC0590296BE0690AF01AFC0690296BFE
:101B2000206A0AF015FC07906A4604A92C480AF0BE
:101B30006BFC00982A4A8001009001986946800158
:101B40000190029880010290039880010390104652
:101B50000AF004FC22490846FFF71FFF08B070BDD9
:101B6000AE63FBE72DE9F0430446D0F820018FB0C7
:101B700041067CD51A4DD4F810111E4B2A68891ADB
:101B8000D4F82C215A438A4201DA032100E00221D1
:101B9000A963810504F58870804601D51049D4E019
:101BA000002104A80AF002F90D490C223C3104A8D6
:101BB00000F08BFD08BBD4F82801A96D88421BE01A
:101BC00017B75139A69BC43B0AD7233C8FC2753D3A
:101BD000CDCC4C3ECDCCCC3E0014CD47000080CEC9
:101BE000949E002000247449112D4454FB21094087
:101BF0000080664071981C007ED0208807AB80B2C0
:101C000004AA616A09F034FE099800F0DEFF01467B
:101C100000F0C0FD0746089800F0D7FF014600F02D
:101C2000B9FD0646079800F0D0FF014600F0B2FD6E
:101C3000314600F057FD394600F054FD0CF008FA2B
:101C40000646E84900F0A6FDE74900F0D5FD6FF033
:101C50000F0100F00FFE0746D4F8280100F0B5FF91
:101C6000394600F097FDE14900F0C6FD00E06EE066
:101C70004FF0FF3100F0FEFD074608F0DDFF814622
:101C800038460CF0A6F907464FF08040864204DA49
:101C9000A8640020E864286533E01E21484600F06F
:101CA000E9FD00F0C7FFA864079800F08EFF8146A9
:101CB000CF49384600F06EFD0746494600F06AFD00
:101CC000314600F099FD00F0B5FFE864089800F097
:101CD0007CFF0146384600F05DFD314600F08CFD8A
:101CE00000F0A8FF2865099800F06FFF014638460C
:101CF00000F050FD314600E00EE000F07DFD00F008
:101D000099FF04AB686593E8070005F13C0383E89D
:101D10000700D4F82801A8656A46B64940460AF08B
:101D200073FBB4480AAA1430694604460AF06CFBF7
:101D3000214640460AF045FBAE486A460AA94838A3
:101D40000AF062FBAB4968464839FFF726FE0FB040
:101D50008DE51FB50446A748694648380AF031FBAF
:101D6000A44A6946283A20460AF04EFBA1491DCCF8
:101D7000383981E81D001FBD2DE9F0479D4E04460E
:101D8000483E90F8740006F15C0A06F1200801252F
:101D900000F05001103692B004F5887904F15C0728
:101DA000402906D094F8200100F0500040280DD0C2
:101DB0001EE031463846FFF761FDB4F82001C0054A
:101DC0000CD5514648460AF0FCFA07E05146484611
:101DD0000AF0F7FAB4F87400C00509D585486946D9
:101DE00048380AF0EEFA4246694630460AF00CFBE3
:101DF000B4F82001C005204602D5FFF7B3FE01E08C
:101E0000FFF72EFE7B493246483940460AF0FCFA7D
:101E100094F87400400671D5208EB4F82011084360
:101E2000C00578D50FAA394630460AF04BFCD4E9F4
:101E3000172080FB0001C2FB0201626E6D4FC2FBE6
:101E40000201483F4FF08042801A71F1020014DB1A
:101E500004A80AF01DF8DDE9042080FB0001C2FBA4
:101E60000201069AC2FB02014FF08042801A71F112
:101E7000020002DB0420B8630BE0B86B042808D032
:101E800041F28832022806D0032804D001283AD033
:101E900009E0002507E0E16E91FBF2F5012D00DA83
:101EA0000125032800D0AD00534800244543109875
:101EB0000794800229460AF04BFA08900F982946A9
:101EC000404280020AF044FACDE909040BAA3146E7
:101ED00007A80AF099FA32460BA910460AF03EFA12
:101EE00031460846FFF759FD4248694648380AF02E
:101EF00068FA4246694630460AF086FA12B0002077
:101F0000BDE8F08707E0E06E90FBF2F0012800DA10
:101F100001204500C7E7334619463846E26EFFF711
:101F2000D7FBE1E770B50446008EC105D4F8200167
:101F300007D4B4F87410C90503D4C10501D4002036
:101F400070BDC0F30120032808D02046FFF714FF1E
:101F50002848A16B38380AF06BFEF0E704F5887169
:101F600024482EC9383880E82E00F1E723480AF0CB
:101F700071BE204810B56C21483800F09BFB1D480D
:101F80004FF080414838016101600162C163C16561
:101F9000002010BD1D4810B5082219A1006800F0EE
:101FA00094FB08B1322010BD1322BDE81040C821B7
:101FB00012480AF01DBC10B5FFF7DBFF002805D161
:101FC000AFF22F00BDE810400AF0A0BC10BD10B564
:101FD0000A480AF03FFEAFF24300BDE810400AF0A5
:101FE00067BE0000DB0F4940000034430024744901
:101FF000000080CEDC9E0020A69BC400251F0008A8
:10200000654D504C20352E310000000000000020AE
:10201000002803DDFE490122C1E9200200207047AB
:1020200010B5B821FA4800F045FBF948F949C160FC
:10203000F9498160F9490160F94941604FF08041F7
:1020400041664FF4FA61C167F649C0F89C10002060
:1020500010BD2DE9F041EE4C0E46074600252168E3
:1020600000F092FE11D33846616800F083FE0CD375
:102070002069012813D13046E16800F085FE04D3C1
:102080003046A16800F076FE09D2606F20B9E048C2
:10209000A16D18300AF0BAFC0120C4E91D05D4E98D
:1020A0001E01884204DB606F012800D1E565656789
:1020B000BDE8F08170B50C46054609F0DDFDD44A57
:1020C000002110B9D848854202DD1161516102E05A
:1020D0001069002808D1506920445061B0F5FA7F9A
:1020E00002DD0120C2E9040170BDF0B58DB00D46DE
:1020F0001446064669460AF00DFB09AA31462846F1
:102100000AF082F9294630460AF05BF90021EC46D4
:102110000DF1240E00231A46184601EB41073D1825
:102120000EEB80065CF825507668401CC5FB063235
:102130000328F4DB980F40EA820044F82100491C90
:102140000329E7DB0DB0F0BDB1490020C1F88C00D8
:10215000704770B50446806800F037FD014600F016
:1021600019FB0546606800F030FD014600F012FBE7
:102170000646206800F029FD014600F00BFB3146C1
:1021800000F0B0FA294600F0ADFA0BF061FFBDE8AF
:1021900070406FF00F0100F06DBB70B50E4600256A
:1021A0009B4C012130B101280CD0C4F8981044F8A0
:1021B0008C5F29E0C4F8A060C4E92965E4E924152E
:1021C000A56070BD3046D4F8A01000F0DDFA20F014
:1021D0000040D4F89C1000F0CDFD13D254F8945F69
:1021E00031466D1C2560206900F07CFA2061943C2A
:1021F000312DE6DD022144F8901F8C4900F0FCFAF5
:10220000A06170BD44F8905F656070BD2DE9FF4F1F
:102210008BB000267E4C0546039604960596D4F8AE
:1022200088009346374600287ED009F0E3FD10B1C0
:1022300003A809F0ABFDD4F88000A146002819DD01
:1022400001204C46C9F8840009F0D4FD48B103A828
:1022500009F0EEFD8009B0F5C87F02D2D4F8800005
:1022600004E0D4F88000401BC4F88000002801DCA2
:10227000C4F8847009F082FF002855D000240E981D
:1022800050F8240000F0A1FC82465BF8240000F026
:102290009CFC6FF00F08414600F0ECFA514600F04C
:1022A00079FA414600F0E6FA314600F01BFA641C68
:1022B0000646032CE3DB5846FFF74BFF014606902A
:1022C000304600F099FA4FF07E58DFF864A140459F
:1022D00001DD404602E0504500D9504608F0F8FBC9
:1022E0008346D9F88C004E4670B13168069800F0EC
:1022F00041FD09D27168069800F046FD04D25946A6
:10230000D6F89000FFF749FF684609F0E1FD404923
:102310000C22AC31684600F0D8F918B9D6F898000C
:1023200001286CD13A4800E0C6E09DE80E00AC30D0
:1023300080E80E00009818B9019808B9029858B3BF
:102340006846FFF706FF044610F0FF4F57D0DFF84E
:10235000E4902046494600F017FA014600F01AFAC8
:102360000BF076FE70604946204600F0BBF901464E
:1023700000F010FA0BF06CFE3060029800F025FCC3
:102380006FF00F0100F076FA214600F035FA0446AE
:1023900040451FDD444620E0204830602048706002
:1023A000D6F89800012804D01B48B0601948F060A6
:1023B00025E0D6F89C80D6F8A8404146204600F09B
:1023C000E3F9B0604146204600F08CF9C6F89870F9
:1023D000F06014E0544500D95446204608F078FBDC
:1023E000D6F89C1000F0D0F9B060204608F070FBE1
:1023F000D6F89C1000F076F9C6F88C70F060DFF823
:102400001080F16D08F1580801BB0120002413E091
:10241000009F00200000B4420000B4C200007042DF
:102420000000F0417B142E3E00401C460000484254
:10243000000080BF00002041F06506EB041041461B
:10244000183009F045FC641C042CF6DB434907AA4C
:102450000C460C98FFF749FE21460C9809F0B1FF95
:1024600003A809F0E5FC00F0B9FB6FF0050100F0EE
:1024700001FA2946FFF71EFE59460698FFF7E9FDC7
:10248000D6E91E01884201DA2844B067706F90B91E
:10249000306E28443066B0F57A7F0CDD2F4930224B
:1024A0003C39A1F11000376600F0DDF82B484146B9
:1024B0001C3809F00DFC706F0FB0BDE8F08F70B5DF
:1024C00088B0044604A809F037FCD4E93001451A65
:1024D000684609F0C3FB064604AB04F1A002694656
:1024E0002846FFF793FE0AF0A3FA08B0304670BD05
:1024F00004224FF49671AFF239000AF079B9AFF2C5
:1025000041000AF0A7BB10B5FFF78AFD00280DD1E6
:10251000124800216438C0F88C100121C0F88810DE
:10252000AFF23300BDE810400AF0F0B910BD10B5AD
:10253000AFF275000AF08EFBAFF27D00BDE81040EF
:102540000AF088BB054901206439C1F88C000020DD
:10255000704702486438406F70470000649F002055
:102560002DE9F05F0546002092469B4688460646C8
:10257000814640241BE0284641464746224600F05B
:1025800023FC53465A46C01A914110D311461846AF
:10259000224600F047F82D1A67EB01084F46224605
:1025A0000120002100F03EF817EB00094E41201EEB
:1025B000A4F10104DFDC484631462A464346BDE823
:1025C000F09F2DE9F0410024061B254671F100061D
:1025D00005DA01240027D0EB070067EB0101161E86
:1025E00073F1000605DA0027D2EB0702012567EB3D
:1025F0000303FFF7B5FF86460E4617469C46AC42DE
:1026000004D00025D0EB050E65EB010624B10020B7
:10261000D2EB000760EB030C704631463A46634646
:10262000BDE8F081202A04DB203A00FA02F1002004
:1026300070479140C2F1200320FA03F31943904000
:102640007047202A06DBCB17203A41FA02F043EA12
:10265000E07306E041FA02F3D040C2F1200291405B
:1026600008431946704710B5431A934209D283189C
:10267000881803E010F8011D03F8011D521EF9D25D
:1026800010BD40EA01039B0703D009E008C9121FEF
:1026900008C0042AFAD203E011F8013B00F8013B1C
:1026A000521EF9D210BDD2B201E000F8012B491E32
:1026B000FBD270470022F6E710B513460A460446DF
:1026C0001946FFF7F0FF204610BD30B50446002044
:1026D000034600E05B1C934203D2E05CCD5C401BF0
:1026E000F8D030BDF0B480EA0102D40F4200B2EB62
:1026F000410F02D20246084611464A0042D0C30D9D
:10270000DDB2C1F3C752AD1A202D35DAC1F316017F
:1027100041F4000204B15242C5F1200602FA06F16A
:102720002A411044B3EBD05F23D0C4B1012DA0EBFC
:10273000C35009DCF0BC4FF0004202EAC352DBB2E6
:1027400000F5000000F059BB400000F1807000EB84
:10275000C350A0F1807040EAD170490009E04908F7
:1027600041EAC071A0EBC35000F50000400800EB47
:10277000C350F0BC00F038BB6142012202EB4101C2
:10278000001BF6E7F0BC704781F00041AAE780F03B
:102790000040A7E780EA010210B502F000434000C4
:1027A00022D04A001FD0010E01EB1261C0F3560087
:1027B000C2F3560240F4000042F40002A0FB0220E3
:1027C00000047F39140400D0401C50EA124001D4A8
:1027D0004000491EC2B20C0604EBD010401C400859
:1027E000802A02D003E0002010BD20F00100002963
:1027F00000DA0020184310BD30B480EA010202F074
:10280000004530F0004221F0004013D090B1C30DDC
:10281000D40DC2F31601C0F31600E41A41F400010E
:1028200040F400027D34914201D3641C00E0490071
:10283000002C02DA30BC002070474FF40000002367
:10284000914201D3891A034340084FEA4101F7D16D
:1028500051B1914202D14FF0004105E002D24FF058
:10286000010101E06FF0010103EBC450284430BCCA
:1028700000F0BABA420005D0C0F3C75252429142AA
:1028800001DC0020704700EBC15070472DE9FE4F7E
:10289000804681EA0300C00F0C46009021F0004101
:1028A00023F00045B8EB0200A94105D2404621467D
:1028B00090461C460B46024623F00040104347D08A
:1028C000270DC7F30A00C3F30A510290401A019082
:1028D00040286BDAC3F3130040F4801B0098924643
:1028E00020B10023D2EB030A63EB0B0B019859468E
:1028F000C0F140025046FFF795FE06460D46504691
:102900005946019AFFF79DFE10EB08006141002433
:1029100087EA115284EAE7731A4340D0009A62B3FF
:10292000019A012A4FEA075215DC001B61EB0201F4
:102930004FF0004202EA0752CDE90042001C41F587
:10294000801132462B4600F095FA03B0BDE8F08FB7
:1029500040462146F9E7001B61EB0201001C41F5EE
:10296000801300185B412018A2F5001747EB030104
:1029700040EAD570B6196D4111E06D084FEA360690
:1029800045EAC0754FEA0752001B61EB0201001CCB
:1029900041F5801149084FEA300000195141324693
:1029A0002B4603B0BDE8F04F00F055BA0098012265
:1029B00040000023D0EB020263EBE0730098214655
:1029C0004FEAE074B8EB000061EB0401E9E783F043
:1029D00000435BE781F0004158E72DE9FE4F81EAB3
:1029E000030404F0004421F0004100944FF0000B78
:1029F00023F0004350EA01045ED052EA03045BD0A6
:102A0000C3F30A54C1F30A552C44A4F2F3340194DD
:102A1000A0FB0254C1F3130141F48011C3F313036B
:102A200043F4801301FB024400FB034E840A970A1F
:102A300044EA815447EA8357A4FB076802958D0A4C
:102A400005FB07854FEA932C04FB0C542705029DD8
:102A50004FEA065847EA1637B5EB08056EEB070C48
:102A6000870E920E47EA811742EA8312A7FB020102
:102A7000B6EB0B0164EB00042B0D43EA0C335E183C
:102A800044EB1C50DA465146E7FB0201C5F3130440
:102A90004FEA0B3343EA14534FEA0432019C43EAF2
:102AA0000603A4F10C040294009CCDE900B400F0EC
:102AB000E1F903B0BDE8F08F00200146F9E72DE908
:102AC000F04D81EA030404F0004B21F00045144668
:102AD0004FF0000A23F0004150EA050220D054EAEA
:102AE00001021DD0C5F30A570246C5F31303C1F313
:102AF0001300C1F30A5640F4801543F48013A7EB8A
:102B00000608101BD64608F2FD3873EB050002D309
:102B100008F1010801E092185B41B8F1000F03DAF7
:102B200000200146BDE8F08D00204FF480110646DC
:102B300084460EE0171B73EB050705D3121B63EBEE
:102B4000050306434CEA010C49084FEA300092188D
:102B50005B4150EA0107EDD152EA030012D082EA4C
:102B6000040083EA0501084305D0101BAB4106D2DF
:102B70000122002306E000224FF0004302E06FF044
:102B8000010253101AEB06004CEB085110EB0A003F
:102B900041EB0B01BDE8F04D00F05DB970B521F0DF
:102BA000004303430CD0C1F30A550024D5EB0405C0
:102BB00064EB0403D617AD1AB34102DB00200146D3
:102BC00070BD201841EB025170BDC10F80EAE0706A
:102BD0000844CA079623002100F00FB9962300226B
:102BE000114600F00AB9F0B4CA17CB0F504051405B
:102BF000C61841F100054FEAC372314628004FF074
:102C0000960303D0B623F0BC00F0F7B8304600219D
:102C1000F9E70EB5C10F80EAE0700844CA07002149
:102C200040F233438DE80E000A460B4600F022F9CD
:102C300003B000BD00F0004220F00040C10DC0F321
:102C4000160040F400007F2901DA00207047962921
:102C500003DCC1F19601C84001E096398840002AA2
:102C6000F4D04042704710B500F0004420F000401E
:102C7000C20DC0F3160040F400007F2A02DA0020E3
:102C8000014610BD0021962A03DCC2F19602D04015
:102C900002E0963AFFF7C6FC002CF2D00023D0EBFE
:102CA000030063EB010110BD70B5C1F30A5201F0DE
:102CB00000450024C1F3130140F2FF3341F48011B9
:102CC0009A4201DA002070BD40F233439A42A2F2E8
:102CD000334203DC524200F077F800E090402C438E
:102CE000F1D0404270BD00F0004230F000400AD008
:102CF000C10D01F56071C0F3160042EA0151C2082E
:102D000040071143704700200146704730B5041E4C
:102D100071F1000404DB4FF00044404264EB010118
:102D2000141E73F1000405DB1C464FF000435242B1
:102D300063EB0403994208BF904230BD01F00043A9
:102D400030B421F0004150EA010206D00A0DA2F58C
:102D50006072C1F31301002A02DC30BC002070470E
:102D6000440F44EAC104C100E01830BC00EBC2507B
:102D700000F03AB8002801DBC0F10040002901DB77
:102D8000C1F1004181427047002801DBC0F10040E1
:102D9000002901DBC1F100418842704730B50B4684
:102DA000014600202022012409E021FA02F59D427B
:102DB00005D303FA02F5491B04FA02F52844151E4F
:102DC000A2F10102F1DC30BD202A04DB203A21FA15
:102DD00002F00021704721FA02F3D040C2F1200234
:102DE00091400843194670470029A8BF7047401C0E
:102DF000490008BF20F00100704710B4B0FA80FC11
:102E000000FA0CF050EA010404BF10BC704749B14D
:102E1000CCF1200421FA04F411FA0CF118BF0121BD
:102E200021430843A3EB0C01CB1D4FEA00614FEA9D
:102E3000102042BF002010BC704700EBC35010446C
:102E40000029A4BF10BC7047401C490008BF20F0F7
:102E5000010010BC704710B5141E73F1000408DAAD
:102E6000401C41F1000192185B411A4301D120F04E
:102E7000010010BD2DE9F04D92469B4611B1B1FA0B
:102E800081F202E0B0FA80F220329046FFF7CAFBEE
:102E900004460F4640EA0A0041EA0B0153465A46EF
:102EA000084313D0114653EA010019D0C8F140027B
:102EB0005046FFF789FF05460E46504659464246A2
:102EC000FFF7B0FB084305D0012004E02046394657
:102ED000BDE8F08D0020054346EAE0762C433743F9
:102EE0000A986305E40AA0EB08000022FD0A44EA00
:102EF00047540A3002D500200146E9E701051019C0
:102F00006941DDE9084500196941BDE8F04DA2E7D6
:102F10002DE9F04D00231A461B1A8A4103DB0020DD
:102F20000146BDE8F08DC1F30A52C1F3130141F42B
:102F300080154FF0000BD10702D100186D41521ED1
:102F40000027044640F2FF11384601EB620A3E4674
:102F50008046024600204FF48011FFF735FFC2196A
:102F60007141BB1846EB0100B4EB030C75EB000C90
:102F700004D3E41A65EB000517460E46241908F140
:102F800001006D4180463428E3DDF91946EB060067
:102F9000091BA84103D24FF0FF32134601E0002283
:102FA00013461BEB070046EB0A51BDE8F04DFFF757
:102FB00052BFC1F30A52C1F3130140F2FF3341F48F
:102FC00080119A4202DA00200146704740F23343F2
:102FD0009A42A2F2334202DC5242FFF7F5BEFFF7FB
:102FE00021BB0000064C074D06E0E06840F00103FD
:102FF00094E8070098471034AC42F6D3FDF7C8F8C0
:10300000A0F20008C0F2000830B58C1810F8012BAF
:1030100012F00F0301D110F8013B120906D110F88C
:10302000012B03E010F8015B01F8015B5B1EF9D195
:1030300001E001F8013B521EFBD1A142E6D3002082
:1030400030BDFEE710B5806B816B496D022902D05F
:10305000012180F8251000F047F910BD10B5846BF0
:10306000A26A806B002A806B01681FD00A6802F494
:103070000022A36ADB070BD152B1C968E26A01EBF7
:10308000C201002200F017FBA06A401EA0621DE0F2
:103090000A6812031AD40969E26A01EBC20101222B
:1030A00000F009FBA06A401EA0620FE00868000360
:1030B00002D5606BC86009E00868000306D4606B45
:1030C000E26A00EB82000861206BA062A06A216BBB
:1030D00088420BD12068C16841F00101C1602068BD
:1030E0000068800702D5012084F8250010BD00008B
:1030F000014800F0FBB80000F08E0020014801F00C
:10310000C3B800008C900020014801F0BDB8000059
:1031100050920020014801F0B7B80000908F0020C5
:1031200010B5074800F08CFA0649012008700648DF
:1031300001F0AAF805480168491C016010BD0000B3
:10314000F08E002088000020308F00209C0000209E
:103150000168CAB2103A1823B2FBF3F2064B9B5C2B
:10316000C3656FF30901032A02D9091D816500E0D7
:103170008165806D7047000048E4000810B5014685
:1031800000208A6A8B694FF0C074002B0ED0B3F513
:10319000005F1AD062B3012A2AD0022A28D0032A5B
:1031A00003D1C96AC90100D5012010BD1AB1012A95
:1031B00006D0022AF9D1C96AC901F6D5012010BD8D
:1031C000C96AA142FBD1012010BD52B1012A0AD027
:1031D000022A06D0032AF7D1C96AA142F4D10120FC
:1031E00010BD012010BDC96AC901FBD5012010BD69
:1031F000012010BD10B5046863608368402B04D0C3
:10320000036899600068C26010BD03689A60006836
:10321000C16010BD30B50468256825F4802525609F
:10322000046863608368402B04D003689960006879
:10323000C26030BD03689A600068C16030BD0000A4
:1032400070B50646064C656802F0B0F80549B0FB5B
:10325000F1F171436068401B8842FBD370BD0000F0
:10326000001000E040420F00704710B504F0C4FAAF
:10327000BDE81040202001F0A5B9000010B50446BB
:10328000114908780A2802D2401C087010BD00209D
:10329000087021680968496AA18021680968486244
:1032A000A08841F2707110FB01F0FFF7B2FC9FEDB6
:1032B000071B53EC112BFFF702FCFFF73FFD00EE5D
:1032C000100A84ED020A10BD150000200000000065
:1032D00000A09B4090ED020A7047086008683C21FE
:1032E00002F0CEBB72B6FEE7704770472DE9F041A1
:1032F000044620680569224F69074FF004060BD584
:103300004661E06B40F00200E06384F82560A06B4A
:103310000765A06B00F0A3FFA8070DD52168022068
:103320004861E06B40F00100E06384F82560A06B29
:103330000765A06B00F093FFE80605D52168102013
:103340004861204600F065F8280705D52168082067
:103350004861204600F0AEF9E8070FD02068016808
:10336000890703D5C16821F01E01C1602068C168CA
:1033700021F00101C1602046FFF7B7FFBDE8F081F1
:103380004530000870B50446002C04D094F82500A0
:10339000002510B109E0012070BD84F824502046BA
:1033A00000F038F8204600F035F8022084F82500B7
:1033B0002068016840F6F8729143016061686069B5
:1033C0000143D4E9030210430143A0680143A0690B
:1033D0000143206A0143206802681143016060686C
:1033E00010280BD1207F617FE27F40EA0120A17F7E
:1033F000090441EA02610843216888612068C168C4
:1034000041F01E01C160E563012084F82500002021
:1034100070BD70472DE9F04387B08046142102A8A3
:10342000FFF748F95049D8F8000088427ED10025BE
:103430004E48016841F001010160006800F00100A0
:1034400001904A49091F086840F0100008600868A8
:1034500000F010000190086840F001000860086862
:1034600000F001000190086840F00400086008685E
:1034700000F004000190086840F00200086008684D
:1034800000F0020001906020029002240394049551
:10349000032705970D26069602A9354801F09EF8E8
:1034A000502002900394049505940696DFF8C4908A
:1034B00002A9484601F092F84FF43060029003945C
:1034C00004950597069602A92B4801F087F8780223
:1034D0000290039404950597069602A9484601F0C8
:1034E0007DF8402002900394049505970696DFF836
:1034F0008C9002A9484601F071F880200290039454
:1035000004950594069602A9484601F067F81D4CFB
:103510001B4820604FF000706060A560E560C0133C
:103520002061800060618000A06100E018E0E5613A
:10353000256204206062A762E5622563204600F0F0
:103540008BFF08B1FFF7CEFEC8F83840C4F83880CA
:10355000002202214E2001F053FD4E2001F042FDD9
:1035600007B0BDE8F0830000000005503438024089
:103570000010024000000240000802400004024027
:1035800028640240308F0020F8B5044694F82400E7
:10359000012827D0012684F82460022084F8250021
:1035A0002068056845F4804505602068056825F0B9
:1035B00002050560206805680D430560A16B1E4883
:1035C000C863A56B1D49E964A16B00250D65A56263
:1035D000256331048B4207D22168A06B283100F0AB
:1035E000A5FF1FE00220F8BDA76B7864A662E36226
:1035F000626305E0E06A4008E062A06A4000A06201
:10360000E06A8842F6D2A06A801EA062A06A2063A7
:10361000E06A02EB8003E06A00902168A06B283129
:1036200000F052F82068016841F00101016084F85F
:1036300024500020F8BD00005D300008453000082F
:10364000F8B504461A480E210068B0FBF1F000906E
:10365000002594F82400012827D0012684F824604E
:10366000022084F825002068016821F00101016032
:1036700021680098421E009205D2E06B40F02000C5
:10368000E063032502E00868C007F2D1086820F46F
:10369000804008602434606900F09AFDA069A06150
:1036A0006670002020702846F8BD0220F8BD00009A
:1036B0008C01002070470068002A02D001610020C0
:1036C0007047C160FBE700002DE9F84F04460A9EF1
:1036D00000200090A0684FF48075802818D0E06B1F
:1036E000C8B1606CB8B1E06CA8B194F8340001289E
:1036F00015D0012084F8340094F835700020012F93
:103700000FD084F83400022000900098BDE8F88FB4
:1037100065650120FAE7402060650120F6E7022098
:10372000F4E7022784F8357060652068076847F47D
:10373000802707602068036133462046FFF75AFD63
:10374000F94AFA4BF84EF94FDFF8DCE3DFF8D8C35B
:10375000DFF8D883DFF8D0932168F448483A603323
:10376000183618374FF4006A4FF4001BACF1300CD8
:1037700008F1780809F13009714542D9814202D136
:103780004FF0200A38E0914202D14FF0200A33E096
:10379000994202D14FF0200A2EE0B14202D14FF0FF
:1037A000200A29E0B94227D0614525D0414523D0E0
:1037B000494521D0DFF874A30AF1300A514501D1FF
:1037C000DA4619E0DFF860A3AAF1180A514501D1E1
:1037D000DA4611E0DFF854A30AF1900A514501D10D
:1037E000DA4609E0DFF840A30AF1480A514501D161
:1037F000DA4601E04FF0006ACB494C39C1F800A02D
:10380000D3E0DFF828E30EF1A80E714542D98142DA
:1038100002D14FF0200A38E0914202D14FF0200A45
:1038200033E0994202D14FF0200A2EE0B14202D19A
:103830004FF0200A29E0B94227D0614525D0414503
:1038400023D0494521D0DFF8E4A20AF1300A5145DE
:1038500001D1DA4619E0DFF8D0A2AAF1180A5145E1
:1038600001D1DA4611E0DFF8C4A20AF1900A51450D
:1038700001D1DA4609E0DFF8B0A20AF1480A514561
:1038800001D1DA4601E04FF0006AA7495039C1F88A
:1038900000A08AE0DFF894E20EF1480E714542D9AB
:1038A000814202D14FF0200A38E0914202D14FF01C
:1038B000200A33E0994202D14FF0200A2EE0B142B3
:1038C00002D14FF0200A29E0B94227D0614525D026
:1038D000414523D0494521D0DFF850A20AF1300AF2
:1038E000514501D1DA4619E0DFF83CA2AAF1180AE5
:1038F000514501D1DA4611E0DFF830A20AF1900A11
:10390000514501D1DA4609E0DFF81CA20AF1480A64
:10391000514501D1DA4601E04FF0006A8349103980
:10392000C1F80CA041E0814202D14FF0200A38E0FA
:10393000914202D14FF0200A33E0994202D14FF078
:10394000200A2EE0B14202D14FF0200A29E0B9420C
:1039500027D0614525D0414523D0494521D0DFF806
:10396000CCA10AF1300A514501D1DA4619E0DFF85D
:10397000B8A1AAF1180A514501D1DA4611E0DFF8E1
:10398000ACA10AF1900A514501D1DA4609E0DFF80D
:1039900098A10AF1480A514501D1DA4601E04FF0F9
:1039A000006A62491039C1F808A0DFF87CE121689B
:1039B0004FF4806A4FF4801B714542D9814202D195
:1039C0004FF0100A38E0914202D14FF0100A33E074
:1039D000994202D14FF0100A2EE0B14202D14FF0CD
:1039E000100A29E0B94227D0614525D0414523D0AE
:1039F000494521D0DFF834A10AF1300A514501D1FF
:103A0000DA4619E0DFF820A1AAF1180A514501D1E0
:103A1000DA4611E0DFF814A10AF1900A514501D10C
:103A2000DA4609E0DFF800A10AF1480A514501D160
:103A3000DA4601E04FF0806A3B494C39C1F800A0FA
:103A4000CFE0DFF8E8E00EF1A80E714542D98142DF
:103A500002D14FF0100A38E0914202D14FF0100A23
:103A600033E0994202D14FF0100A2EE0B14202D168
:103A70004FF0100A29E0B94227D0614525D04145D1
:103A800023D0494521D0DFF8A4A00AF1300A5145DE
:103A900001D1DA4619E0DFF890A0AAF1180A5145E1
:103AA00001D1DA4611E0DFF884A00AF1900A51450D
:103AB00001D1DA4609E0DFF870A00AF1480A514561
:103AC00001D1DA4601E04FF0806A17495039C1F858
:103AD00000A086E0DFF854E00EF1480E714542D9AF
:103AE000814202D14FF0100A38E0914202D14FF0EA
:103AF000100A33E0994202D14FF0100A2EE0B14291
:103B000002D14FF0100A29E0B94227D0614525D0F3
:103B1000414523D0494521D0DFF810A00AF1300AF1
:103B2000514505D1DA4619E0586402401060024060
:103B3000DFF808A4514501D1DA460FE0DFF800A410
:103B4000514501D1DA4609E0DFF8F0A30AF1600A35
:103B5000514501D1DA4601E04FF0806AF849A039B9
:103B6000C1F80CA03DE0814202D14FF0100A34E0D0
:103B7000914202D14FF0100A2FE0994202D14FF04A
:103B8000100A2AE0B14202D14FF0100A25E0B942F2
:103B900023D0614521D041451FD049451DD0DFF8D4
:103BA000A0A3AAF1600A514501D1DA4615E0DFF879
:103BB0008CA3514501D1DA460FE0DFF884A35145CB
:103BC00001D1DA4609E0DFF874A30AF1600A514531
:103BD00001D1DA4601E04FF0806AD949A039C1F835
:103BE00008A0DFF858E321680EF1180E4FF4007AB0
:103BF0004FF4002B71453ED9814202D14FF0080AA3
:103C000034E0914202D14FF0080A2FE0994202D1EC
:103C10004FF0080A2AE0B14202D14FF0080A25E02D
:103C2000B94223D0614521D041451FD049451DD01F
:103C3000DFF80CA3AAF1600A514501D1DA4615E07C
:103C4000DFF8F8A2514501D1DA460FE0DFF8F0A223
:103C5000514501D1DA4609E0DFF8E0A20AF1600A35
:103C6000514501D1DA4601E04FF0007AB3493439C9
:103C7000C1F800A0C7E0DFF8C8E20EF1180E7145E8
:103C80003ED9814202D14FF0080A34E0914202D17C
:103C90004FF0080A2FE0994202D14FF0080A2AE0BB
:103CA000B14202D14FF0080A25E0B94223D0614564
:103CB00021D041451FD049451DD0DFF884A2AAF18B
:103CC000600A514501D1DA4615E0DFF870A251458E
:103CD00001D1DA460FE0DFF868A2514501D1DA469A
:103CE00009E0DFF858A20AF1600A514501D1DA462D
:103CF00001E04FF0007A91493839C1F800A082E024
:103D0000DFF83CE2AEF1480E71453ED9814202D166
:103D10004FF0080A34E0914202D14FF0080A2FE038
:103D2000994202D14FF0080A2AE0B14202D14FF085
:103D3000080A25E0B94223D0614521D041451FD072
:103D400049451DD0DFF8F8A1AAF1600A514501D11B
:103D5000DA4615E0DFF8E4A1514501D1DA460FE07B
:103D6000DFF8DCA1514501D1DA4609E0DFF8CCA14A
:103D70000AF1600A514501D1DA4601E04FF0007ABC
:103D80006F49A039C1F80CA03DE0814202D14FF04B
:103D9000080A34E0914202D14FF0080A2FE099421C
:103DA00002D14FF0080A2AE0B14202D14FF0080ACE
:103DB00025E0B94223D0614521D041451FD0494576
:103DC0001DD0DFF87CA1AAF1600A514501D1DA4685
:103DD00015E0DFF868A1514501D1DA460FE0DFF8C0
:103DE00060A1514501D1DA4609E0DFF850A10AF19E
:103DF000600A514501D1DA4601E04FF0007A50499E
:103E0000A039C1F808A0DFF834A121680AF1180A26
:103E10004FF4802B514533D9814201D104252BE049
:103E2000914201D1042527E0994201D1042523E0E4
:103E3000B14201D104251FE0B9421DD061451BD01C
:103E4000414519D0494517D03D4D603DA94201D1AA
:103E50005D4611E0394DA94201D15D460CE0384D77
:103E6000A94201D15D4607E0344D6035A94201D138
:103E70005D4601E04FF08075304934390D60AAE0AD
:103E8000DFF8BCE00EF1180E714533D9814201D143
:103E900004252BE0914201D1042527E0994201D16C
:103EA000042523E0B14201D104251FE0B9421DD011
:103EB00061451BD0414519D0494517D0204D603D83
:103EC000A94201D15D4611E01C4DA94201D15D46D8
:103ED0000CE01B4DA94201D15D4607E0174D60354E
:103EE000A94201D15D4601E04FF080751349383990
:103EF0000D6070E0DFF848E0AEF1480E714537D94B
:103F0000814201D104252FE0914201D104252BE00B
:103F1000994201D1042527E0B14201D1042523E0D3
:103F2000B94221D061451FD041451DD049451BD024
:103F3000034D603DA94205D15D4615E04064024055
:103F4000A0600240A04DA94201D15D460CE09F4D0A
:103F5000A94201D15D4607E09B4D6035A94201D1E0
:103F60005D4601E04FF080759849A039CD6032E0A0
:103F7000814201D104252BE0914201D1042527E0A3
:103F8000994201D1042523E0B14201D104251FE06B
:103F9000B9421DD061451BD0414519D0494517D0C4
:103FA0008A4D603DA94201D15D4611E0864DA9428E
:103FB00001D15D460CE0854DA94201D15D4607E087
:103FC000814D6035A94201D15D4601E04FF0807519
:103FD0007E49A0398D6021684FF480354FF4800B05
:103FE000514532D9814201D101252AE0914201D1C6
:103FF000012526E0994201D1012522E0B14201D1FB
:1040000001251EE0B94201D140251AE0614501D1E8
:10401000402516E0414501D1402512E0494501D136
:1040200040250EE06948603881420AD066488142E6
:1040300007D06648814204D063486030814200D096
:104040005D46614834380560A3E0DFF880A10AF1DD
:10405000180A514532D9814201D101252AE0914205
:1040600001D1012526E0994201D1012522E0B1428A
:1040700001D101251EE0B94201D140251AE0614578
:1040800001D1402516E0414501D1402512E04945C6
:1040900001D140250EE04D48603881420AD04A489F
:1040A000814207D04948814204D04748603081426C
:1040B00000D05D464448383805606AE0DFF80CA15E
:1040C000AAF1480A514532D9814201D101252AE09D
:1040D000914201D1012526E0994201D1012522E03A
:1040E000B14201D101251EE0B94201D140251AE0BB
:1040F000614501D1402516E0414501D1402512E03E
:10410000494501D140250EE03048603881420AD04F
:104110002D48814207D02D48814204D02A48603082
:10412000814200D05D462948A038C56031E0814217
:1041300001D101252AE0914201D1012526E09942D1
:1041400001D1012522E0B14201D101251EE0B94291
:1041500001D140251AE0614501D1402516E04145D5
:1041600001D1402512E0494501D140250EE0174814
:10417000603881420AD01448814207D013488142F6
:1041800004D011486030814200D05D460F48A0380D
:1041900085602068016841F016010160206841696E
:1041A00041F080014161206C08B9A06C20B1206809
:1041B000016841F0080101602068016841F00101D7
:1041C0000160FFF7A2BA000040640240A060024014
:1041D0002DE9F0410446A76D00F0F6FA054694F883
:1041E00035000026022806D08020606584F83460FF
:1041F0000120BDE8F0812068016821F0160101600E
:104200002068416921F080014161206C08B9A06CEF
:1042100020B12068016821F0080101602068016870
:1042200021F0010101600BE000F0CEFA401B0528EF
:1042300006D9202034342062032060702670D8E72D
:1042400020680068C007EFD134343F2094F828106C
:104250008840B8600120607026700020C9E790F89F
:104260003510022903D080214165012070470521C6
:1042700080F835100068016821F00101016000201C
:10428000704790F8350070472DE9F84304464FF029
:104290000009CDF800906F484FF416510068B0FB4C
:1042A000F1F7A56D2E6894F85C00082202FA00F17F
:1042B000314210D02068016849070CD5016821F00F
:1042C0000401016094F85C0002FA00F1A960606DDD
:1042D00040F00100606594F85C104FF0010808FAA6
:1042E00001F0304208D021684969090604D5A86068
:1042F000606D40F00200606594F85C100420884016
:10430000304208D021680968890704D5A860606D2B
:1043100040F00400606594F85C1010208840304242
:1043200020D02168096809071CD5A86020680168A9
:1043300049030CD50068000304D4216C91B12046D8
:1043400088470FE0A16C69B1204688470AE0016800
:10435000C90503D4016821F008010160216C09B18D
:104360002046884794F85C102020884030424CD08A
:1043700021680968C90648D5A86094F83500052861
:104380000BD020680168490330D50068000328D4A9
:10439000616C51B32046884737E02068016821F0FE
:1043A000160101602068416921F080014161206CA3
:1043B00008B9A06C20B12068016821F008010160F3
:1043C00094F85C103F208840A86084F8358084F819
:1043D0003490216D00293BD001B02046BDE8F04368
:1043E0000847E16B09B1204688470EE00168C9051E
:1043F00007D4016821F01001016084F8358084F849
:104400003490E16B09B120468847606D00281FD0C9
:10441000606DC00714D0052084F83500206801685D
:1044200021F0010101600098401C0090B84203D8BF
:1044300020680068C007F6D184F8358084F834908D
:10444000E16C002904D001B02046BDE8F0430847E4
:10445000BDE8F8838C0100202DE9F041044600F00E
:10446000B3F905465CB1022084F83500002684F8D3
:1044700034602068016821F0010101600DE0012035
:10448000BDE8F08100F0A0F9401B052805D92020E7
:104490006065032084F83500F2E720680068C007F3
:1044A000F0D121680A6820480240D4E9010318438A
:1044B000D4E903352B43184363691843A3691843B0
:1044C000E3691843236A18431043626A042A03D13C
:1044D000D4E90B231A43104308602068406920F098
:1044E0000700656A29460543012704290DD1A06A02
:1044F0000543E06A48B12046FEF740FE28B140205F
:10450000606584F835700120BAE72068456120466F
:10451000FEF71EFE94F85C203F21914081606665A5
:1045200084F835700020ABE73F8010F02DE9F041B2
:1045300004460025A66D94F8340001280DD0012012
:1045400084F8340094F835700020012F07D084F8E7
:10455000340002252846BDE8F0810220FBE702274F
:1045600084F8357060652046FEF754FE94F85C10C0
:104570003F208840B0602068016841F0160101606A
:10458000206C20B12068016841F0080101602068BA
:10459000016841F001010160DCE7000070B50446EC
:1045A00000F012F90546601C02D00448007804446B
:1045B00000F00AF9401BA042FAD370BD8001002030
:1045C0007047000010B504490A68024202D0086032
:1045D000FFF7F6FF10BD0000143C01402DE9F84F35
:1045E0000022DFF89C914FF0010809F1040A03272B
:1045F0004FF00F0C0AF1040B08FA02F50B682B4080
:10460000AB426ED10C7904F00304012C01D0022CD2
:1046100015D18668540007FA04FE26EA0E06D1F882
:104620000CE00EFA04FE4EEA060EC0F808E04468FC
:10463000AC430D79C5F300159540254345600C79D1
:10464000E443A40708D0C568540007FA04F6B5434C
:104650008E68A6402E43C6600C7904F00304022C39
:1046600011D1D40800EB8406356A5407E40E0CFA25
:1046700004FE25EA0E05D1F810E00EFA04FE4EEA1B
:10468000050EC6F820E00568540007FA04F6B543A5
:104690000E7906F00306A6402E4306604C6814F41B
:1046A000403F67D0374C256845F480452560246835
:1046B00004F480440094344C22F003052E19D6F8FB
:1046C000085894074FEA147E0CFA0EF4A5432F4CB9
:1046D000A04201D1002424E02D4CA04202D10124AB
:1046E0001FE047E02B4CA04201D1022419E02A4CE4
:1046F000A04201D1032414E0284CA04201D104249B
:104700000FE0274CA04201D105240AE0254CA0422D
:1047100001D1062405E0244CA04201D1072400E089
:10472000082404FA0EF42C43C6F80848D9F80040CF
:104730009C434D68ED0300D51C43C9F80040DAF8EE
:1047400000409C434D68AD0300D51C43CAF80040AF
:10475000DBF800409C434D68ED0200D51C43CBF8CC
:104760000040074D0C352C689C434E68B60200D5BE
:104770001C432C60521C102AFFF43EAFBDE8F88F9A
:10478000003C01404438024000300140000002403B
:104790000004024000080240000C024000100240E9
:1047A0000014024000180240001C02400069084248
:1047B00001D00120704700207047002A01D081619C
:1047C00070470904816170470148806870470000A4
:1047D00080010020704770472DE9F04104462168B0
:1047E0004A694E68002594F83E00D743FA0506D47E
:1047F000F243D20503D401256FF480724A61B905F2
:1048000008D4F143C90505D445F0020522686FF4C8
:1048100000715161790525D4F143C90522D4628D17
:1048200094F83D10236B202808D13AB9212910D0E3
:1048300029290ED0282901D1212B0AD022686FF412
:104840008061516145F00405102806D0402804D04D
:1048500008E0204602F032FC04E02068016841F4E0
:1048600000710160380508D4F043C00505D445F057
:10487000080521686FF400604861002D07D0206CA6
:10488000284320642046BDE8F04101F06FBFBDE839
:10489000F0812DE9F041054600212B685A68EE6A47
:1048A00095F83E4095F83D00102C05D0402C03D0E3
:1048B0002C6CECB35C696EE09F695969C9435FEA8F
:1048C000C17C05D0B6F52A0F7CD0B6F12A4F79D03D
:1048D000CE070AD1D643B60507D4284601F0B8FE64
:1048E0002846BDE8F04102F05BBA0E0707D4D64374
:1048F000B60504D42846BDE8F04102F072B98E072F
:1049000007D4D643B60504D42846BDE8F04102F0EA
:104910007DB9FE43760723D45B681B0552D40B0692
:104920000BD4D3435B0508D44B0706D5284600E0DB
:104930002FE0BDE8F04102F0F5B8490775D4D14346
:10494000890572D4212806D0402C6ED12846BDE8B6
:10495000F04102F075BA2846BDE8F04102F09DB87A
:104960005868000561D4480609D4D043400506D4F0
:10497000480704D52846BDE8F04102F025B84807AD
:1049800053D4D043800550D42846BDE8F04101F00F
:104990009BBF99695C69E443A6070AD4D643B60570
:1049A00007D4286C00B199692846BDE8F04102F0AF
:1049B00061BBE10609D4D143890506D42846BDE888
:1049C000F04100E031E002F0BBBB21280DD02928E6
:1049D0000BD060061FD4D04340051CD460071AD505
:1049E0002846BDE8F04102F0F3BA200609D4D043CE
:1049F000400506D4600704D52846BDE8F04102F022
:104A000017BB600711D4D04380050ED42846BDE8FB
:104A1000F04102F0FFBA600707D4D043800504D408
:104A20002846BDE8F04102F0C5BABDE8F081704704
:104A30007047704770477047704770477047000075
:104A40002DE9F04186B00446206881680591694FE0
:104A5000694D4FF04026B84201D1294600E0314669
:104A6000896804914068039001D1284600E03046EF
:104A70004068029060684FF00108B0F5007F22D0D6
:104A800008B30498800705D50298000602D5204691
:104A900002F0ACFC0598C00705D00398400602D58B
:104AA000204602F03BFC059840067DD50398800621
:104AB0007AD52068416821F0600141602068B842E1
:104AC0005FD128465EE00598800705D5039800066B
:104AD00002D5204602F06EFC0498C00705D002986B
:104AE000400602D5204602F035FC0498400622D547
:104AF000029880061FD52068B84201D1284600E000
:104B00003046406820F0600101D1284600E0304680
:104B100041602068416821F0A00141602068C168BF
:104B20008068019084F84180606C40F0020060640D
:104B3000204600F064F80598000758D503988006D1
:104B400055D52068416821F0A00141602068B84235
:104B500001D1284600E03046406820F0600000D0D7
:104B60003546686020688068019084F84180606CF8
:104B700040F00400606406B02046BDE8F04100F05B
:104B80003EB83046406820F0A00102D1284601E03E
:104B90000AE03046416084F84180606C40F00200D9
:104BA0006064204600F02BF8049800071FD5029897
:104BB00080061CD52068B84201D1284600E0304666
:104BC000406820F0A00000D0354668602068416849
:104BD00021F06001416084F84180606C40F0040085
:104BE000606406B02046BDE8F04100F008B806B0A9
:104BF000BDE8F08100380040003400407047704745
:104C00002DE9F0470446002C05D094F841004FF000
:104C1000000818B109E00120BDE8F08784F8408061
:104C200058486063204600F0B5F8022684F84160D9
:104C30002068C16940F6BF77B943C1612068066248
:104C400060694FF40079022838D0E068B8B12025B7
:104C5000A068202800D86D00012000F003FA216927
:104C6000494519D1E16861B1A900B0FBF1F000EB51
:104C7000800061694000B0FBF1F0401D15E0102597
:104C8000E6E7E900B0FBF1F000EB8000616940006D
:104C9000B0FBF1F0401D08E0B0FBF5F000EB800048
:104CA00061694000B0FBF1F0401D0A21B0FBF1F05A
:104CB00000F00101401A4008090201E00220002131
:104CC000821EFE2A05D3606C40F010006064012053
:104CD000A2E722690843024320680262D4E9011076
:104CE0000143A269E068104301432068C269BA43E6
:104CF000114341F40061C161206A012838D1224882
:104D00006063224D226822484FF04021AA4201D11F
:104D1000024600E00A46D36923EA070301D10246AE
:104D200000E00A46D3612268AA4201D1024600E0AF
:104D30000A4616622368AB4201D1024600E00A46E9
:104D4000D26996B262684A4519D0C2B10022278959
:104D500092B2BFB23A43A789BFB23A43278BBFB2E0
:104D60003A43324342F40062AB4200D00846C2618B
:104D7000C4F84480012084F8410000204CE74FF43F
:104D80008072E4E74D740008414A00080038004092
:104D9000003400402DE9F0478AB00646142105A8EA
:104DA000FDF788FC00250195029503950495384987
:104DB0003068884268D14FF00108CDF80480322075
:104DC00002900224039401A800F080F908B1FEF7D4
:104DD00089FA3048016841F400410160006800F43C
:104DE000004000902B491039086840F0010008602D
:104DF000086800F001000090086840F004000860B6
:104E0000086800F0040000904FF4004005900694FC
:104E1000079508950627099705A91F48FFF7DEFBA8
:104E20004FF48069CDF8149006940795CDF8208052
:104E30000997DFF868A005A95046FFF7CFFB4FF4AC
:104E40008058CDF81480069407940895099705A911
:104E50005046FFF7C3FB134C114820606560A56006
:104E6000E560C4F81090C4F814804FF48040A0614D
:104E70008011E061256265622046FFF7EDFA08B116
:104E8000FEF730FAF463A6630AB0BDE8F0870000CD
:104E9000003C004040380240000002400008024050
:104EA000106002408C90002070B51C49884214D1DB
:104EB0001B4C237804F1140000250088C2B2C0F313
:104EC00007215BB1E068A31D03F8102003EB40024B
:104ED0005170642819D0401CE06070BD104BE06830
:104EE0005B1D03F8102003EB40025170642802D0D0
:104EF000401CE06070BDE5600949C822491D0948B1
:104F000001F04CFB0120207070BDE5600449C8220F
:104F1000891D044801F042FB257070BD44900020BB
:104F2000800000200C920020704700000248816839
:104F300002781144816070478001002010B50B4851
:104F4000016841F400710160016841F48061016011
:104F5000016841F480710160032000F071F80F20B6
:104F600000F006F800F026F8002010BD003C0240DA
:104F700070B504460D4D4FF47A712878B1FBF0F00E
:104F80000B490968B1FBF0F000F06EFC08B101209C
:104F900070BD102C07D200221146501E00F030F8D0
:104FA0006C60002070BD012070BD000080010020F9
:104FB0008C01002008B50A48016841F48041016075
:104FC000006800F4804000900548001F016841F02F
:104FD00080510160006800F08050009008BD000022
:104FE00044380240002809DB00F01F0201219140F3
:104FF0004009800000F1E020C0F800117047000077
:10500000F0B40D460D4B1B68C3F30223C3F1070434
:10501000042C00D90424191D072901D2002300E023
:10502000DB1E012606FA04F1491E294099409E40E4
:10503000761E16403143F0BC03F095BD0CED00E048
:1050400000F00701054A10684FF6FF03184040EAD8
:105050000120034908431060704700000CED00E098
:105060000000FA0501460020012907D1134909680B
:1050700001F4000119B1012900D1114870470F480E
:10508000001F0168490206D500680E4900F03F0084
:10509000B1FBF0F005E000680B4900F03F00B1FB08
:1050A000F0F0064A7C321168C1F388114143106860
:1050B000C0F30270B1FBF0F0704700000838024006
:1050C0000080BB0040787D010024F4002DE9F84306
:1050D00004464FF0010820684FF00007C10701D1D6
:1050E00040072BD5DFF81891C9F86870FFF76CFB03
:1050F0000646444D07E0FFF767FB801B022802D9F4
:105100000320BDE8F88328680001F4D46068217AA0
:10511000800140EA01703B4984310860C9F8688029
:10512000FFF752FB064606E0FFF74EFB801B022806
:1051300001D90320E5E728680001F5D5207880072C
:1051400053D530484030016841F08051016000681B
:1051500000F0805000902C4D286840F4807028604A
:10516000FFF732FB064606E0FFF72EFB801B022806
:1051700001D90320C5E72868C005F5D5214D703554
:10518000286800F44070F8B1A18901F440718142AF
:105190001AD0286820F440701C49C1F800800F60C4
:1051A00028602868C0070FD0FFF70EFB064641F2C3
:1051B000883706E0FFF708FB801BB84201D90320BF
:1051C0009FE728688007F5D5E0680E49C0F3012203
:1051D0000831032A0BD0086820F4F810086028680A
:1051E000A189C1F30B0108432860002089E70A6800
:1051F000074B22F4F812184002430A60EFE7000060
:10520000000047420038024000700040400E474214
:10521000FFFCFF0F2DE9F04704460D46002C13D08C
:10522000DFF82891D9F80000EFB200F00700A8429B
:105230000CD289F80070D9F8000000F00700A842ED
:1052400004D00120BDE8F0870120FBE72068404E34
:10525000810712D5400703D5306840F4E050306034
:105260002078000703D5306840F460403060306833
:10527000A16820F0F000084330602078C00731D0EA
:10528000334960680839012808D002280BD0032868
:1052900009D0096889070BD40120D3E7096889037D
:1052A00006D40120CEE70968890101D40120C9E7AD
:1052B000316821F0030101433160FFF785FA804630
:1052C00041F2883A07E0FFF77FFAA0EB080050456B
:1052D00001D90320B6E73068616800F00C00B0EB3C
:1052E000810FF0D1D9F8000000F00700A84209D9D9
:1052F00089F80070D9F8000000F00700A84201D03A
:1053000001209FE72078400705D53068E16820F448
:10531000E050084330602078000706D530682169E6
:1053200020F4604040EAC100306000F03FF831688E
:10533000084AC1F30311515CC84007490860074897
:105340000068FFF715FE00207CE70000003C0240EB
:105350000838024050E400088C010020840100203D
:1053600001480068704700008C01002000B5FFF77D
:10537000F7FF04490968044AC1F38221515CC8401F
:1053800000BD00000838024060E4000800B5FFF7E7
:10539000E7FF04490968044AC1F34231515CC8403F
:1053A00000BD00000838024060E4000810B517484E
:1053B000006810F00C01164816D0164B042912D0C4
:1053C000082911D1114C241F216801F03F022168E6
:1053D00049020AD52068C0F38810A0FB030100230E
:1053E000FDF7BEF809E0184610BD21680023C1F39F
:1053F0008811A1FB0001FDF7B3F82168C1F3014159
:10540000491C4900B0FBF1F010BD00000838024013
:105410000024F40040787D01F0B587B00C461546B5
:105420001E4E00211D4B02270322283E00281AD0C1
:10543000186840F004001860186800F0040001903B
:1054400058150290039705920491069102A91448F9
:10545000FFF7C4F8306844EAC50120F078400843FB
:10546000306007B0F0BD186840F00100186018689F
:1054700000F0010001904FF48070029003970592B4
:105480000491069102A90748FFF7A8F830682C4359
:1054900020F0EC6020433060E3E700003038024049
:1054A00000080240000002402DE9F84F0446002C9D
:1054B00013D02078DFF8A083C007A8F1040556D0E8
:1054C00008F104000168C1F3810101290CD00068D2
:1054D000C0F38100022803D00DE00120BDE8F88F61
:1054E000D8F80000400206D5286880033FD56068E0
:1054F00070BB0120F2E76068B0F5803F10D0B0F5D6
:10550000A02F12D0286820F480302860286820F46A
:10551000802028606068E0B1FFF756F9064614E085
:10552000286840F480302860F4E7286840F4802040
:105530002860286840F480302860EBE7FFF744F9E2
:10554000801B642801D90320C8E728688003F5D5AB
:105550000DE0FFF739F9064606E0FFF735F9801B45
:10556000642801D90320B9E728688003F5D420789E
:10557000BA4F80074FF0000948D5B748001D0168B1
:1055800011F00C0F08D00068C0F38100022813D17D
:10559000D8F8000040020FD42868800704D5E068DE
:1055A000012801D0012099E72868216920F0F8003E
:1055B00040EAC100286029E0E068B8B10120386005
:1055C000FFF702F9064606E0FFF7FEF8801B022807
:1055D00001D9032082E728688007F5D5286821696A
:1055E00020F0F80040EAC10028600FE0C7F8009002
:1055F000FFF7EAF8064606E0FFF7E6F8801B022808
:1056000001D903206AE728688007F5D420780007CD
:1056100029D5DFF844A2924861690AF1700A89B17C
:1056200001210160FFF7D0F8064606E0FFF7CCF84D
:10563000801B022801D9032050E7DAF80000800718
:10564000F4D510E0C0F80090FFF7BEF8064606E07B
:10565000FFF7BAF8801B022801D903203EE7DAF8E9
:1056600000008007F4D42078400778D54FF0000A76
:1056700079483C300068C0000BD477483C30016862
:1056800041F080510160006800F0805000904FF0C0
:10569000010ADFF8D0B1DBF80000C00514D4DBF854
:1056A000000040F48070CBF80000FFF78DF806464C
:1056B00006E0FFF789F8801B022801D903200DE7D7
:1056C000DBF80000C005F4D5634EA0686C360128F5
:1056D0000FD0052812D0306820F00100306030680B
:1056E00020F004003060A068F8B1FFF76DF8834641
:1056F00017E0306840F001003060F4E7306840F0B7
:1057000004003060306840F001003060EBE7FFF7E4
:105710005BF8A0EB0B0141F28830814201D90320F4
:10572000DCE630688007F2D510E0FFF74DF88346DD
:1057300009E0FFF749F8A0EB0B0141F28830814204
:1057400001D90320CAE630688007F2D4BAF1010F0C
:1057500005D141483C30016821F080510160A069C9
:10576000C0B33D49091D09684FF0FF36C1F38101FF
:10577000022946D0022805D0C7F86090FFF724F828
:1057800004463AE0C7F86090FFF71EF8814607E04C
:10579000FFF71AF8A0EB0900022801D903209DE6C3
:1057A00028688001F4D4D4E907010843616AA26A39
:1057B000890106EB520241EA0241084394F82C1099
:1057C00040EA0160C8F8000001203866FEF7FCFFDF
:1057D000044607E03DE0FEF7F7FF001B022801D971
:1057E00003207BE628688001F5D532E0FEF7ECFF68
:1057F000001B022801D9032070E628688001F5D437
:1058000027E0012823D0D8F80000E26900F48001E5
:1058100091421AD1226A00F03F01914215D147F618
:10582000C071626A0140B1EB821F0ED1A26A00F41E
:10583000403106EB5202B1EB024F06D194F82C1026
:1058400000F07060B0EB016F03D0012046E601204C
:1058500044E6002042E600000438024000004742CF
:10586000800E47420070004010B5401EB0F1807FAE
:1058700001D3012010BD4FF0E02460610F216017BB
:1058800003F071F90020A06107202061002010BD05
:1058900070B590F83C20012A31D0012680F83C6098
:1058A000022280F83D2002685468936824F0700555
:1058B0000C682C435460134C0268A24214D0B2F11D
:1058C000804F11D0104CA2420ED0104CA2420BD0EF
:1058D0000F4CA24208D00F4CA24205D00E4CA2425F
:1058E00002D00E4CA24204D123F080034968194330
:1058F00091603C30467000210170002070BD022094
:1059000070BD00000000014000040040000800409D
:10591000000C00400004014000400140001800401D
:105920002DE9F04104460D46002C03D094F83D00CB
:1059300018B108E00120BDE8F081002084F83C00A7
:10594000204600F047F8022084F83D002068816876
:1059500044F2070291438160211D206802F06AFC35
:10596000273454F8270C81688269066A2B680B4338
:1059700040F203318A43AF69A96842EA0722114322
:1059800040F60C4291434FF2F0029143EF69EA680E
:1059900041EA07210A4329692F6A090141EA0731CF
:1059A000114326F0220222F088066A686D6946EAF1
:1059B00005152A43836054F8270C816154F8270C9D
:1059C00002620120E077E0752076E0762077A0750E
:1059D0000020B0E730B587B00446142102A8FCF7D8
:1059E00069FE2349214D20680024214A10390223F1
:1059F000A8421BD1106840F002001060106800F04F
:105A000002000190086840F004000860086800F097
:105A100004000190C020029003930494059406931F
:105A200002A91448FEF7DAFD07B030BD124DA842B6
:105A3000FAD1106840F004001060106800F0040013
:105A40000190086840F008000860086800F008004D
:105A500001904FF4405002900393049405940693F0
:105A600002A90648FEF7BAFDDEE700000004004088
:105A7000403802400008024000080040000C02408C
:105A800070B5044614F83E0F6278237965793E3C80
:105A90000226002904D004290DD001281CD115E0CC
:105AA000012801D1012B01D0012070BD84F83E6096
:105AB00084F8426018E0012A01D1012D01D00120B3
:105AC00070BD84F83F6084F843600DE0012A03D183
:105AD000012B01D1012D01D0012070BD04F83E6FD2
